:100000000C942A000C9497090C94C2090C94470094
:100010000C9447000C9447000C9447000C94470044
:100020000C9447000C94ED090C9447000C94610C5F
:100030000C9447000C9447000C9447000C94470024
:100040000C9447000C9447000C9447000C94120A3F
:100050000C94470011241FBECFE5D4E0DEBFCDBF16
:1000600011E0A0E6B0E0E8E2FEE202C005900D92E9
:10007000AC38B107D9F711E0ACE8B1E001C01D928E
:10008000AB39B107E1F70E94800C0C9412170C9465
:100090000000DF93CF93CDB7DEB7A4E3B0E0E4E395
:1000A000F0E08081876F8C93A5E3B0E0E5E3F0E0BA
:1000B000808180788C93CF91DF9108950F931F9367
:1000C000DF93CF93CDB7DEB7C057D0400FB6F894CB
:1000D000DEBF0FBECDBFFE01E359FF4F80E090E0D1
:1000E000A0E8BFE380839183A283B3838E01075985
:1000F0001F4FFE01E359FF4F60817181828193811F
:1001000026E636E646EE54E40E94E311DC01CB011C
:10011000F80180839183A283B383FE01E759FF4FE7
:10012000608171818281938120E030E040E85FE36B
:100130000E94E913882344F4FE01E959FF4F81E04E
:1001400090E09183808364C0FE01E759FF4F608196
:1001500071818281938120E03FEF4FE757E40E9455
:10016000891318160CF043C0FE01E359FF4F60815C
:1001700071818281938120E030E040E251E40E946D
:10018000E311DC01CB018E0109591F4FBC01CD01E8
:100190000E940D10DC01CB01F801918380831FC008
:1001A000FE01EB59FF4F88EB90E091838083FE01C5
:1001B000EB59FF4F808191810197F1F7FE01EB59D7
:1001C000FF4F91838083DE01A959BF4FFE01E9599A
:1001D000FF4F80819181019711969C938E93FE0130
:1001E000E959FF4F808191810097D1F627C08E0198
:1001F00009591F4FFE01E759FF4F608171818281CC
:1002000093810E940D10DC01CB01F8019183808362
:10021000DE01AD59BF4FFE01E959FF4F8081918149
:100220008D939C93FE01ED59FF4F80819181019741
:10023000F1F7FE01ED59FF4F91838083A5E3B0E014
:10024000E5E3F0E080818E7F8C93A5E3B0E0E5E309
:10025000F0E080818D7F8C93E5E3F0E080E38083A4
:10026000A5E3B0E0E5E3F0E0808184608C93FE01DB
:10027000E15AFF4F80E090E0A0EAB0E480839183F0
:10028000A283B3838E01055A1F4FFE01E15AFF4F2F
:10029000608171818281938126E636E646EE54E4E0
:1002A0000E94E311DC01CB01F80180839183A283DA
:1002B000B383FE01E55AFF4F608171818281938192
:1002C00020E030E040E85FE30E94E913882344F433
:1002D000FE01E75AFF4F81E090E09183808364C084
:1002E000FE01E55AFF4F608171818281938120E098
:1002F0003FEF4FE757E40E94891318160CF043C0F4
:10030000FE01E15AFF4F608171818281938120E07B
:1003100030E040E251E40E94E311DC01CB018E01A8
:10032000075A1F4FBC01CD010E940D10DC01CB010B
:10033000F801918380831FC0FE01E95AFF4F88EBCB
:1003400090E091838083FE01E95AFF4F8081918183
:100350000197F1F7FE01E95AFF4F91838083DE0197
:10036000A75ABF4FFE01E75AFF4F80819181019745
:1003700011969C938E93FE01E75AFF4F80819181E5
:100380000097D1F627C08E01075A1F4FFE01E55A8C
:10039000FF4F60817181828193810E940D10DC0189
:1003A000CB01F80191838083DE01AB5ABF4FFE0180
:1003B000E75AFF4F808191818D939C93FE01EB5A08
:1003C000FF4F808191810197F1F7FE01EB5AFF4FBA
:1003D00091838083A5E3B0E0E5E3F0E080818B7F4B
:1003E0008C93FE01EF5AFF4F80E090E0A0E8BFE35E
:1003F00080839183A283B3838E01035B1F4FFE0131
:10040000EF5AFF4F608171818281938126E636E643
:1004100046EE54E40E94E311DC01CB01F801808335
:100420009183A283B383FE01E35BFF4F60817181FF
:100430008281938120E030E040E85FE30E94E9138D
:10044000882344F4FE01E55BFF4F81E090E0918357
:10045000808364C0FE01E35BFF4F60817181828114
:10046000938120E03FEF4FE757E40E94891318166D
:100470000CF043C0FE01EF5AFF4F60817181828111
:10048000938120E030E040E251E40E94E311DC017E
:10049000CB018E01055B1F4FBC01CD010E940D10E9
:1004A000DC01CB01F801918380831FC0FE01E75B73
:1004B000FF4F88EB90E091838083FE01E75BFF4F65
:1004C000808191810197F1F7FE01E75BFF4F9183F6
:1004D0008083DE01A55BBF4FFE01E55BFF4F80819E
:1004E0009181019711969C938E93FE01E55BFF4FDE
:1004F000808191810097D1F627C08E01055B1F4F47
:10050000FE01E35BFF4F60817181828193810E94D4
:100510000D10DC01CB01F80191838083DE01A95B22
:10052000BF4FFE01E55BFF4F808191818D939C93CE
:10053000FE01E95BFF4F808191810197F1F7FE0198
:10054000E95BFF4F91838083A5E3B0E0E5E3F0E052
:1005500080818E7F8C93A5E3B0E0E5E3F0E08081BD
:100560008D7F8C93E5E3F0E080E38083A5E3B0E04A
:10057000E5E3F0E0808184608C93FE01ED5BFF4F4A
:1005800080E090E0A0EAB0E480839183A283B3830B
:100590008E01015C1F4FFE01ED5BFF4F6081718199
:1005A0008281938126E636E646EE54E40E94E3110A
:1005B000DC01CB01F80180839183A283B383FE0128
:1005C000FF96608171818281938120E030E040E874
:1005D0005FE30E94E91388232CF481E090E09EAF52
:1005E0008DAF46C0FE01FF9660817181828193814B
:1005F00020E03FEF4FE757E40E948913181664F597
:10060000FE01ED5BFF4F608171818281938120E06B
:1006100030E040E251E40E94E311DC01CB01BC0177
:10062000CD010E940D10DC01CB019EAF8DAF0FC03C
:1006300088EB90E09CAF8BAF8BAD9CAD0197F1F751
:100640009CAF8BAF8DAD9EAD01979EAF8DAF8DAD45
:100650009EAD009769F716C0FE01FF96608171811B
:10066000828193810E940D10DC01CB019EAF8DAF82
:100670008DAD9EAD9AAF89AF89AD9AAD0197F1F777
:100680009AAF89AFA5E3B0E0E5E3F0E080818B7F2E
:100690008C9380E090E0A0E8BFE38DAB9EABAFAB66
:1006A000B8AF6DA97EA98FA998AD26E636E646EECD
:1006B00054E40E94E311DC01CB0189AB9AABABABF4
:1006C000BCAB69A97AA98BA99CA920E030E040E8DD
:1006D0005FE30E94E91388232CF481E090E098AB5B
:1006E0008FA73FC069A97AA98BA99CA920E03FEFF9
:1006F0004FE757E40E94891318164CF56DA97EA99F
:100700008FA998AD20E030E040E251E40E94E3116F
:10071000DC01CB01BC01CD010E940D10DC01CB013D
:1007200098AB8FA70FC088EB90E09EA78DA78DA5F3
:100730009EA50197F1F79EA78DA78FA598A9019770
:1007400098AB8FA78FA598A9009769F714C069A9DE
:100750007AA98BA99CA90E940D10DC01CB0198AB52
:100760008FA78FA598A99CA78BA78BA59CA5019760
:10077000F1F79CA78BA7A5E3B0E0E5E3F0E080816B
:100780008E7F8C93A5E3B0E0E5E3F0E080818D7F80
:100790008C93E5E3F0E080E38083A5E3B0E0E5E35C
:1007A000F0E0808184608C9380E090E0A0EAB0E487
:1007B0008FA398A7A9A7BAA76FA178A589A59AA57D
:1007C00026E636E646EE54E40E94E311DC01CB0156
:1007D0008BA39CA3ADA3BEA36BA17CA18DA19EA165
:1007E00020E030E040E85FE30E94E91388232CF426
:1007F00081E090E09AA389A33FC06BA17CA18DA169
:100800009EA120E03FEF4FE757E40E94891318169E
:100810004CF56FA178A589A59AA520E030E040E2CB
:1008200051E40E94E311DC01CB01BC01CD010E9427
:100830000D10DC01CB019AA389A30FC088EB90E0D7
:1008400098A38F8F8F8D98A10197F1F798A38F8F21
:1008500089A19AA101979AA389A389A19AA1009736
:1008600069F714C06BA17CA18DA19EA10E940D10FF
:10087000DC01CB019AA389A389A19AA19E8F8D8FB8
:100880008D8D9E8D0197F1F79E8F8D8FA5E3B0E042
:10089000E5E3F0E080818B7F8C9380E090E0A0E83E
:1008A000BFE3898F9A8FAB8FBC8F698D7A8D8B8DCB
:1008B0009C8D26E636E646EE54E40E94E311DC0108
:1008C000CB018D8B9E8BAF8BB88F6D897E898F8985
:1008D000988D20E030E040E85FE30E94E913882330
:1008E0002CF481E090E09C8B8B8B3FC06D897E89DE
:1008F0008F89988D20E03FEF4FE757E40E948913DE
:1009000018164CF5698D7A8D8B8D9C8D20E030E02A
:1009100040E251E40E94E311DC01CB01BC01CD01B6
:100920000E940D10DC01CB019C8B8B8B0FC088EBE0
:1009300090E09A8B898B89899A890197F1F79A8B34
:10094000898B8B899C8901979C8B8B8B8B899C894C
:10095000009769F714C06D897E898F89988D0E94F0
:100960000D10DC01CB019C8B8B8B8B899C89988B28
:100970008F878F8598890197F1F7988B8F87A5E3EB
:10098000B0E0E5E3F0E080818E7F8C93A5E3B0E0FA
:10099000E5E3F0E080818D7F8C93E5E3F0E080E299
:1009A0008083A5E3B0E0E5E3F0E0808184608C9390
:1009B00080E090E0A0EAB0E48B879C87AD87BE879B
:1009C0006B857C858D859E8526E636E646EE54E46D
:1009D0000E94E311DC01CB018F839887A987BA8736
:1009E0006F81788589859A8520E030E040E85FE373
:1009F0000E94E91388232CF481E090E09E838D838C
:100A00003FC06F81788589859A8520E03FEF4FE769
:100A100057E40E94891318164CF56B857C858D85EB
:100A20009E8520E030E040E251E40E94E311DC01C9
:100A3000CB01BC01CD010E940D10DC01CB019E83D6
:100A40008D830FC088EB90E09C838B838B819C818E
:100A50000197F1F79C838B838D819E8101979E8303
:100A60008D838D819E81009769F714C06F81788591
:100A700089859A850E940D10DC01CB019E838D83B0
:100A80008D819E819A83898389819A810197F1F76B
:100A90009A838983A5E3B0E0E5E3F0E080818B7F72
:100AA0008C93C059DF4F0FB6F894DEBF0FBECDBF99
:100AB000CF91DF911F910F910895DF93CF93CDB721
:100AC000DEB72E970FB6F894DEBF0FBECDBF80E025
:100AD00090E0A0E8BFE38B879C87AD87BE876B85DE
:100AE0007C858D859E8526E636E646EE54E40E949A
:100AF000E311DC01CB018F839887A987BA876F81C7
:100B0000788589859A8520E030E040E85FE30E949F
:100B1000E91388232CF481E090E09E838D833FC00D
:100B20006F81788589859A8520E03FEF4FE757E40C
:100B30000E94891318164CF56B857C858D859E85E2
:100B400020E030E040E251E40E94E311DC01CB01FF
:100B5000BC01CD010E940D10DC01CB019E838D8371
:100B60000FC088EB90E09C838B838B819C810197E5
:100B7000F1F79C838B838D819E8101979E838D836A
:100B80008D819E81009769F714C06F817885898572
:100B90009A850E940D10DC01CB019E838D838D818F
:100BA0009E819A83898389819A810197F1F79A833B
:100BB000898388E20E94F10581E00E94F10586E0C8
:100BC0000E94F1058EE00E94F10580E80E94F10587
:100BD0002E960FB6F894DEBF0FBECDBFCF91DF913A
:100BE0000895DF93CF93CDB7DEB76E970FB6F89425
:100BF000DEBF0FBECDBF8E8F8E8D8D8F8D8D807F92
:100C00008D8FA5E3B0E0E5E3F0E080818F708C93F9
:100C1000A5E3B0E0E5E3F0E090818D8D892B8C9326
:100C2000A5E3B0E0E5E3F0E080818E7F8C93A5E35F
:100C3000B0E0E5E3F0E080818D7F8C93A5E3B0E048
:100C4000E5E3F0E0808184608C9380E090E0A0EAAE
:100C5000B0E4898F9A8FAB8FBC8F698D7A8D8B8D25
:100C60009C8D26E636E646EE54E40E94E311DC0154
:100C7000CB018D8B9E8BAF8BB88F6D897E898F89D1
:100C8000988D20E030E040E85FE30E94E91388237C
:100C90002CF481E090E09C8B8B8B3FC06D897E892A
:100CA0008F89988D20E03FEF4FE757E40E9489132A
:100CB00018164CF5698D7A8D8B8D9C8D20E030E077
:100CC00040E251E40E94E311DC01CB01BC01CD0103
:100CD0000E940D10DC01CB019C8B8B8B0FC088EB2D
:100CE00090E09A8B898B89899A890197F1F79A8B81
:100CF000898B8B899C8901979C8B8B8B8B899C8999
:100D0000009769F714C06D897E898F89988D0E943C
:100D10000D10DC01CB019C8B8B8B8B899C89988B74
:100D20008F878F8598890197F1F7988B8F87A5E337
:100D3000B0E0E5E3F0E080818B7F8C938E8D8F7047
:100D40008E8F8E8D8295807F8E8FA5E3B0E0E5E358
:100D5000F0E080818F708C93A5E3B0E0E5E3F0E0F4
:100D600090818E8D892B8C93A5E3B0E0E5E3F0E0D4
:100D700080818E7F8C93A5E3B0E0E5E3F0E0808195
:100D80008D7F8C93A5E3B0E0E5E3F0E080818460A3
:100D90008C9380E090E0A0EAB0E48B879C87AD87DD
:100DA000BE876B857C858D859E8526E636E646EE7C
:100DB00054E40E94E311DC01CB018F839887A9875B
:100DC000BA876F81788589859A8520E030E040E890
:100DD0005FE30E94E91388232CF481E090E09E8376
:100DE0008D833FC06F81788589859A8520E03FEFAC
:100DF0004FE757E40E94891318164CF56B857C85E4
:100E00008D859E8520E030E040E251E40E94E311B0
:100E1000DC01CB01BC01CD010E940D10DC01CB0136
:100E20009E838D830FC088EB90E09C838B838B81A6
:100E30009C810197F1F79C838B838D819E81019723
:100E40009E838D838D819E81009769F714C06F8189
:100E5000788589859A850E940D10DC01CB019E83DF
:100E60008D838D819E819A83898389819A8101975F
:100E7000F1F79A838983A5E3B0E0E5E3F0E08081B0
:100E80008B7F8C936E960FB6F894DEBF0FBECDBFEE
:100E9000CF91DF910895DF93CF93CDB7DEB76E97F3
:100EA0000FB6F894DEBF0FBECDBF8E8F8E8D8D8FA7
:100EB0008D8D807F8D8FA5E3B0E0E5E3F0E080814C
:100EC0008F708C93A5E3B0E0E5E3F0E090818D8D29
:100ED000892B8C93A5E3B0E0E5E3F0E080818160AD
:100EE0008C93A5E3B0E0E5E3F0E080818D7F8C9307
:100EF000A5E3B0E0E5E3F0E0808184608C9380E0DE
:100F000090E0A0EAB0E4898F9A8FAB8FBC8F698D97
:100F10007A8D8B8D9C8D26E636E646EE54E40E9453
:100F2000E311DC01CB018D8B9E8BAF8BB88F6D896C
:100F30007E898F89988D20E030E040E85FE30E9451
:100F4000E91388232CF481E090E09C8B8B8B3FC0CD
:100F50006D897E898F89988D20E03FEF4FE757E4B8
:100F60000E94891318164CF5698D7A8D8B8D9C8D96
:100F700020E030E040E251E40E94E311DC01CB01CB
:100F8000BC01CD010E940D10DC01CB019C8B8B8B31
:100F90000FC088EB90E09A8B898B89899A89019799
:100FA000F1F79A8B898B8B899C8901979C8B8B8B12
:100FB0008B899C89009769F714C06D897E898F8918
:100FC000988D0E940D10DC01CB019C8B8B8B8B8943
:100FD0009C89988B8F878F8598890197F1F7988BDB
:100FE0008F87A5E3B0E0E5E3F0E080818B7F8C9311
:100FF0008E8D8F708E8F8E8D8295807F8E8FA5E3E4
:10100000B0E0E5E3F0E080818F708C93A5E3B0E081
:10101000E5E3F0E090818E8D892B8C93A5E3B0E021
:10102000E5E3F0E0808181608C93A5E3B0E0E5E347
:10103000F0E080818D7F8C93A5E3B0E0E5E3F0E004
:10104000808184608C9380E090E0A0EAB0E48B879C
:101050009C87AD87BE876B857C858D859E8526E6C2
:1010600036E646EE54E40E94E311DC01CB018F83A7
:101070009887A987BA876F81788589859A8520E0C6
:1010800030E040E85FE30E94E91388232CF481E01C
:1010900090E09E838D833FC06F81788589859A8596
:1010A00020E03FEF4FE757E40E94891318164CF5F4
:1010B0006B857C858D859E8520E030E040E251E4A3
:1010C0000E94E311DC01CB01BC01CD010E940D1097
:1010D000DC01CB019E838D830FC088EB90E09C8365
:1010E0008B838B819C810197F1F79C838B838D810E
:1010F0009E8101979E838D838D819E81009769F7E4
:1011000014C06F81788589859A850E940D10DC0155
:10111000CB019E838D838D819E819A838983898172
:101120009A810197F1F79A838983A5E3B0E0E5E31B
:10113000F0E080818B7F8C936E960FB6F894DEBFC3
:101140000FBECDBFCF91DF910895DF93CF93CDB781
:10115000DEB780E80E94F105CF91DF910895DF931B
:10116000CF9300D0CDB7DEB79A8389830AC0E981D7
:10117000FA8180810E944B0789819A8101969A8326
:101180008983E981FA818081882389F70F900F9004
:10119000CF91DF910895DF93CF9300D000D0CDB7EA
:1011A000DEB789836A838981282F30E03C832B83D3
:1011B0008B819C8182309105D9F02B813C81233039
:1011C000310534F48B819C818130910561F01EC022
:1011D0002B813C812330310581F08B819C818430CF
:1011E000910581F013C08A8181580E94F1050EC0DB
:1011F0008A8181540E94F10509C08A818D560E941E
:10120000F10504C08A818D520E94F1050F900F9064
:101210000F900F90CF91DF910895DF93CF93CDB7CB
:10122000DEB7A7E3B0E0E7E3F0E080818F608C9366
:10123000A8E3B0E0E8E3F0E08081807F8C93A1E355
:10124000B0E0E1E3F0E0808180638C93A2E3B0E062
:10125000E2E3F0E0808180638C93CF91DF91089589
:10126000DF93CF93CDB7DEB7A1E3B0E0E1E3F0E0E9
:101270008081877F8C93A2E3B0E0E2E3F0E080819D
:1012800088608C93CF91DF910895DF93CF93CDB792
:10129000DEB7A1E3B0E0E1E3F0E080818B7F8C93E7
:1012A000A2E3B0E0E2E3F0E0808184608C93CF9130
:1012B000DF910895DF93CF93CDB7DEB70E94490049
:1012C0000E940D090E9430090E944509CF91DF91CB
:1012D0000895DF93CF93CDB7DEB7F894A5E5B0E0DE
:1012E000E5E5F0E0808188608C93ABE5B0E0EBE56C
:1012F000F0E0808180688C937894CF91DF9108959D
:10130000DF93CF93CDB7DEB7F894A5E5B0E0E5E580
:10131000F0E0808182608C93ABE5B0E0EBE5F0E03B
:10132000808180648C937894CF91DF9108951F928F
:101330000F920FB60F9211248F939F93AF93BF9389
:10134000DF93CF93CDB7DEB780919001909191015B
:10135000A0919201B09193010196A11DB11D8093BE
:10136000900190939101A0939201B0939301CF913A
:10137000DF91BF91AF919F918F910F900FBE0F9012
:101380001F9018951F920F920FB60F9211248F93F2
:101390009F93AF93BF93DF93CF93CDB7DEB7809189
:1013A0008C0190918D01A0918E01B0918F010196D9
:1013B000A11DB11D80938C0190938D01A0938E018E
:1013C000B0938F01CF91DF91BF91AF919F918F919A
:1013D0000F900FBE0F901F9018951F920F920FB68F
:1013E0000F9211248F93AF93BF93EF93FF93DF93EB
:1013F000CF93CDB7DEB7A2E3B0E0E2E3F0E08081C7
:1014000080688C93E2E5F0E08FE68083CF91DF91F6
:10141000FF91EF91BF91AF918F910F900FBE0F9001
:101420001F9018951F920F920FB60F9211248F9351
:10143000AF93BF93EF93FF93DF93CF93CDB7DEB717
:10144000A2E3B0E0E2E3F0E080818F778C93CF916C
:10145000DF91FF91EF91BF91AF918F910F900FBEF0
:101460000F901F901895DF93CF93CDB7DEB7EAE2C8
:10147000F0E01082EBE2F0E01082E0E4F0E086E8D9
:101480008083E9E2F0E08FE28083E0E4F0E0108224
:10149000EAE2F0E088E98083CF91DF910895DF935D
:1014A000CF93CDB7DEB7A1E3B0E0E1E3F0E0808118
:1014B00080688C93A3E5B0E0E3E5F0E0808185608F
:1014C0008C93E2E5F0E08FE68083A9E5B0E0E9E502
:1014D000F0E0808183608C93CF91DF910895DF935A
:1014E000CF9300D0CDB7DEB78A8319828A818F70FF
:1014F0008A83E8E3F0E0808189838981807F898322
:1015000099818A81892B8983E8E3F0E0898180834E
:101510000F900F90CF91DF910895DF93CF93CDB7C8
:10152000DEB786E00E946F0ACF91DF910895DF93C6
:10153000CF93CDB7DEB789E00E946F0ACF91DF91DC
:101540000895DF93CF93CDB7DEB785E00E946F0A91
:10155000CF91DF910895DF93CF93CDB7DEB78AE0C7
:101560000E946F0ACF91DF910895DF93CF93CDB79B
:10157000DEB780E00E946F0ACF91DF910895DF937C
:10158000CF93CDB7DEB784E00E946F0ACF91DF9191
:101590000895DF93CF93CDB7DEB782E00E946F0A44
:1015A000CF91DF910895DF93CF93CDB7DEB72C971E
:1015B0000FB6F894DEBF0FBECDBF9A87898780E053
:1015C00090E0A0E0B0E08D839E83AF83B88719825E
:1015D0001A821B821C8289859A85CC01A0E0B0E02A
:1015E000BC01CD010E946D14DC01CB01BC01CD0119
:1015F0002AE939E94DE451E40E94DD12DC01CB0116
:101600008D839E83AF83B8876D817E818F8198851E
:101610000E940D10DC01CB01CC01A0E0B0E0898379
:101620009A83AB83BC831092900110929101109227
:1016300092011092930110928C0110928D011092E0
:101640008E0110928F012091900130919101409173
:101650009201509193011C8689819A81AB81BC8152
:10166000281739074A075B0710F081E08C87209123
:101670008C0130918D0140918E0150918F011B861C
:1016800089819A81AB81BC81281739074A075B079A
:1016900010F091E09B878C859B85892B882399F29C
:1016A0000E94B50A2C960FB6F894DEBF0FBECDBFD0
:1016B000CF91DF910895DF93CF93CDB7DEB72C970D
:1016C0000FB6F894DEBF0FBECDBF9A87898780E042
:1016D00090E0A0E0B0E08D839E83AF83B88719824D
:1016E0001A821B821C8289859A85CC01A0E0B0E019
:1016F000BC01CD010E946D14DC01CB01BC01CD0108
:1017000022E538EB4EE451E40E94DD12DC01CB010E
:101710008D839E83AF83B8876D817E818F8198850D
:101720000E940D10DC01CB0189839A83AB83BC83BB
:1017300010929001109291011092920110929301D7
:1017400010928C0110928D0110928E0110928F01D7
:10175000209190013091910140919201509193011B
:101760001C8689819A81AB81BC81281739074A0779
:101770005B0710F081E08C8720918C0130918D0106
:1017800040918E0150918F011B8689819A81AB8196
:10179000BC81281739074A075B0710F091E09B8747
:1017A0008C859B858923882399F20E94B50A2C9603
:1017B0000FB6F894DEBF0FBECDBFCF91DF91089575
:1017C000DF93CF9300D0CDB7DEB79A8389830E9491
:1017D0008D0A89819A810E945B0B0F900F90CF91A7
:1017E000DF910895DF93CF9300D0CDB7DEB79A8312
:1017F00089830E94970A89819A810E945B0B0F90CE
:101800000F90CF91DF910895DF93CF9300D0CDB7A4
:10181000DEB79A8389830E94BF0A89819A81880FE3
:10182000991F9A83898389819A810E94D30A0F9094
:101830000F90CF91DF910895DF93CF9300D0CDB774
:10184000DEB79A8389830E94C90A89819A81880FA9
:10185000991F9A83898389819A810E94D30A0F9064
:101860000F90CF91DF910895DF93CF93CDB7DEB77F
:10187000F8940E945A090E94330A0E945E000E9456
:101880005D050E944F0A0E9469090E9480097894B0
:10189000CF91DF910895DF93CF93CDB7DEB7EAE222
:1018A000F0E088E18083CF91DF910895DF93CF93BB
:1018B000CDB7DEB7EAE2F0E088E98083CF91DF912F
:1018C00008951F920F920FB60F9211248F93EF93EA
:1018D000FF93DF93CF93CDB7DEB7ECE2F0E08081EA
:1018E00080936000ECE2F0E08EE28083CF91DF91A4
:1018F000FF91EF918F910F900FBE0F901F90189551
:10190000DF93CF93CDB7DEB76C970FB6F894DEBFF9
:101910000FBECDBF0E94340C809160008C3381F4E7
:1019200081E061E00E94CB0881E690E00E94AF0870
:1019300082E061E00E94CB0883E790E00E94AF085C
:10194000809160008B3509F076C0ECE5F0E088E727
:10195000808380E090E0AAE7B4E4898F9A8FAB8F10
:10196000BC8F698D7A8D8B8D9C8D26E636E646EE92
:1019700054E40E94E311DC01CB018D8B9E8BAF8B75
:10198000B88F6D897E898F89988D20E030E040E89E
:101990005FE30E94E91388232CF481E090E09C8BA4
:1019A0008B8B3FC06D897E898F89988D20E03FEFBA
:1019B0004FE757E40E94891318164CF5698D7A8D0C
:1019C0008B8D9C8D20E030E040E251E40E94E311D9
:1019D000DC01CB01BC01CD010E940D10DC01CB016B
:1019E0009C8B8B8B0FC088EB90E09A8B898B8989BD
:1019F0009A890197F1F79A8B898B8B899C8901973A
:101A00009C8B8B8B8B899C89009769F714C06D899F
:101A10007E898F89988D0E940D10DC01CB019C8BF3
:101A20008B8B8B899C89988B8F878F859889019761
:101A3000F1F7988B8F87809160008D3509F076C023
:101A4000ECE5F0E08FE7808380E090E0AAE7B4E483
:101A50008B879C87AD87BE876B857C858D859E85B2
:101A600026E636E646EE54E40E94E311DC01CB01A3
:101A70008F839887A987BA876F81788589859A85AA
:101A800020E030E040E85FE30E94E91388232CF473
:101A900081E090E09E838D833FC06F81788589854A
:101AA0009A8520E03FEF4FE757E40E94891318160C
:101AB0004CF56B857C858D859E8520E030E040E28D
:101AC00051E40E94E311DC01CB01BC01CD010E9475
:101AD0000D10DC01CB019E838D830FC088EB90E05D
:101AE0009C838B838B819C810197F1F79C838B83F3
:101AF0008D819E8101979E838D838D819E8100972C
:101B000069F714C06F81788589859A850E940D10C8
:101B1000DC01CB019E838D838D819E819A83898395
:101B200089819A810197F1F79A8389838091600076
:101B3000823741F080916000873621F0809160000B
:101B4000823639F48091600080939A0180E380931B
:101B5000600080916000873761F08091600081367D
:101B600041F080916000843621F0809160008337DD
:101B700039F4809160008093990180E38093600044
:101B800080916000843721F080916000883639F4BC
:101B9000809160008093960180E380936000809143
:101BA0009A01823709F06DC080919901873709F059
:101BB00068C080919601883609F063C0809160000A
:101BC000813339F484E690E00E94E00B80E3809357
:101BD000600080916000823339F488EC90E00E94CC
:101BE000E00B80E38093600080916000833339F4E0
:101BF0008CE291E00E94E00B80E380936000809192
:101C00006000843339F480E991E00E94E00B80E3C6
:101C10008093600080916000853339F484EF91E017
:101C20000E94E00B80E38093600080916000863327
:101C300039F488E592E00E94E00B80E38093600035
:101C400080916000873339F48CEB92E00E94E00BC6
:101C500080E38093600080916000883339F480E2F3
:101C600093E00E94E00B80E380936000809160002D
:101C7000893339F484E893E00E94E00B80E3809399
:101C8000600080919A01823709F06DC080919901BE
:101C9000873709F068C080919601843709F063C0E6
:101CA00080916000813339F48BE090E00E94E00B7A
:101CB00080E38093600080916000823339F484E196
:101CC00090E00E94E00B80E38093600080916000D0
:101CD000833339F48EE190E00E94E00B80E380933F
:101CE000600080916000843339F488E290E00E94C3
:101CF000E00B80E38093600080916000853339F4CD
:101D000082E390E00E94E00B80E38093600080918A
:101D10006000863339F48CE390E00E94E00B80E3AE
:101D20008093600080916000873339F486E490E00E
:101D30000E94E00B80E38093600080916000883314
:101D400039F480E590E00E94E00B80E3809360002E
:101D500080916000893339F48AE590E00E94E00BBD
:101D600080E38093600080919A01823799F480919A
:101D70009901833779F480919601883659F48091DE
:101D80006000813339F48AEA90E00E94F20B80E32C
:101D90008093600080919A01823709F06DC0809134
:101DA0009901813609F068C080919601843709F065
:101DB00063C080916000813339F48AE090E00E9432
:101DC000040C80E38093600080916000823339F4DA
:101DD00084E190E00E94040C80E380936000809195
:101DE0006000833339F48EE190E00E94040C80E3BC
:101DF0008093600080916000843339F488E290E041
:101E00000E94040C80E38093600080916000853321
:101E100039F482E390E00E94040C80E38093600038
:101E200080916000863339F48CE390E00E94040CCA
:101E300080E38093600080916000873339F486E40A
:101E400090E00E94040C80E3809360008091600029
:101E5000883339F480E590E00E94040C80E380939D
:101E6000600080916000893339F48AE590E00E9437
:101E7000040C80E38093600080919A01823749F5D9
:101E800080919901813629F580919601883609F56E
:101E900080916000813339F484E690E00E94040C64
:101EA00080E38093600080916000823339F488EC95
:101EB00090E00E94040C80E38093600080916000B9
:101EC000833339F48CE291E00E94040C80E3809328
:101ED000600080919A01823709F06DC0809199016C
:101EE000843609F068C080919601843709F063C098
:101EF00080916000813339F48AE090E00E941C0CEC
:101F000080E38093600080916000823339F484E143
:101F100090E00E941C0C80E3809360008091600040
:101F2000833339F48EE190E00E941C0C80E38093AF
:101F3000600080916000843339F488E290E00E9470
:101F40001C0C80E38093600080916000853339F43D
:101F500082E390E00E941C0C80E3809360008091FB
:101F60006000863339F48CE390E00E941C0C80E31F
:101F70008093600080916000873339F486E490E0BC
:101F80000E941C0C80E38093600080916000883385
:101F900039F480E590E00E941C0C80E3809360009F
:101FA00080916000893339F48AE590E00E941C0C2E
:101FB00080E38093600080919A01823709F0ACCC75
:101FC00080919901843609F0A7CC809196018836DA
:101FD00009F0A2CC80916000813339F484E690E06E
:101FE0000E941C0C80E3809360008091600082332B
:101FF00039F488EC90E00E941C0C80E38093600030
:1020000080916000833309F087CC8CE291E00E94DC
:102010001C0C80E3809360007FCCEF92FF920F93C3
:102020001F937B018C0120E030E040E05FE40E94E0
:10203000B91388238CF0C801B70120E030E040E0FC
:102040005FE40E9485110E9419149B01AC0120508D
:1020500030404040504806C0C801B7010E941914E2
:102060009B01AC01B901CA011F910F91FF90EF9044
:102070000895A0E0B0E0EFE3F0E10C94DB16DC01A2
:102080002B01FA019C91923008F439C1EB0188814F
:10209000823008F433C1943069F4843009F02FC1E0
:1020A00011969C9111978981981709F428C1A4E889
:1020B000B0E025C1843009F421C18230A9F4923006
:1020C00009F01DC19A01AD0188E0EA010990AE0155
:1020D000E90109929E018150C1F7E20189811196BF
:1020E0009C918923818308C1923009F407C112961B
:1020F0002D903C901397EB018A819B811496AD90B3
:10210000BD90CD90DC901797EC80FD800E811F81F3
:102110009101281B390BB90137FF04C066277727C7
:10212000621B730B603271050CF061C0121613064E
:102130006CF537014801062E04C096948794779475
:1021400067940A94D2F721E030E040E050E004C008
:10215000220F331F441F551F6A95D2F7215030407C
:10216000404050402E213F2140235123211531056D
:102170004105510521F021E030E040E050E07901D7
:102180008A01E628F728082919293CC0232BD1F118
:10219000260E371E35014601062E04C096948794FC
:1021A000779467940A94D2F721E030E040E050E061
:1021B00004C0220F331F441F551F6A95D2F72150C8
:1021C0003040404050402A213B214C215D212115C7
:1021D00031054105510521F021E030E040E050E0BB
:1021E00059016A01A628B728C828D9280BC082152A
:1021F00093052CF01C01AA24BB24650103C0EE2426
:10220000FF24870111969C91D20111968C91981709
:1022100009F445C0992339F0A80197012A193B090F
:102220004C095D0906C0A60195012E193F09400B16
:10223000510B57FD08C011823382228224833583DB
:10224000468357831DC081E08183338222828827A1
:102250009927DC01821B930BA40BB50B8483958318
:10226000A683B7830DC0220F331F441F551F24833D
:102270003583468357838281938101979383828339
:102280002481358146815781DA01C9010197A1096D
:10229000B1098F5F9F4FAF4FBF4328F30BC09183AE
:1022A00033822282EA0CFB1C0C1D1D1DE482F58288
:1022B0000683178383E0808324813581468157819B
:1022C00057FF1AC0C901AA2797FDA095BA2F8170A0
:1022D0009070A070B0705695479537952795822BD2
:1022E000932BA42BB52B84839583A683B7838281FC
:1022F0009381019693838283DF0101C0D201CD01D6
:10230000CDB7DEB7E2E10C94F716A0E2B0E0EBE85F
:10231000F1E10C94E71669837A838B839C832D8388
:102320003E834F835887E9E0EE2EF12CEC0EFD1E24
:10233000CE010196B7010E940A168E010F5E1F4F53
:10234000CE010596B8010E940A168A8991E0892774
:102350008A8BC701B801AE01475E5F4F0E943910FA
:102360000E943515A096E6E00C940317A0E2B0E0B9
:10237000ECEBF1E10C94E71669837A838B839C8301
:102380002D833E834F835887F9E0EF2EF12CEC0E1E
:10239000FD1ECE010196B7010E940A168E010F5E46
:1023A0001F4FCE010596B8010E940A16C701B80159
:1023B000AE01475E5F4F0E9439100E943515A0960E
:1023C000E6E00C940317A0E2B0E0E9EEF1E10C9432
:1023D000DB1669837A838B839C832D833E834F83B3
:1023E0005887CE010196BE01675F7F4F0E940A1693
:1023F000CE010596BE016F5E7F4F0E940A16998539
:10240000923088F089898230C8F0943019F4823093
:1024100051F404C0843029F4923081F484E890E0CF
:10242000C6C0923049F420E09A858A89981321E049
:102430002A87CE010996BBC0823049F420E09A85F4
:102440008A89981321E02A8BCE014196B0C02D8451
:102450003E844F8458886D887E888F88988CEE24BF
:10246000FF248701AA24BB24650140E050E060E01E
:1024700070E0E0E0F0E0C10181709070892BE9F03C
:10248000E60CF71C081D191D9A01AB012A0D3B1D16
:102490004C1D5D1D80E090E0A0E0B0E0E614F70484
:1024A0000805190520F481E090E0A0E0B0E0BA0151
:1024B000A901480F591F6A1F7B1FAA0CBB1CCC1C0B
:1024C000DD1C97FE08C081E090E0A0E0B0E0A82A03
:1024D000B92ACA2ADB2A3196E032F10549F0660CA6
:1024E000771C881C991C5694479437942794C3CF23
:1024F000FA85EA892B893C898B859C85280F391FB1
:102500002E5F3F4F17C0CA0181709070892B61F018
:1025100016950795F794E79480E090E0A0E0B0E886
:10252000E82AF92A0A2B1B2B76956795579547952C
:102530002F5F3F4F77FDE7CF0CC0440F551F661F3D
:10254000771F17FD4160EE0CFF1C001F111F21506B
:102550003040403090E0590790E0690790E47907F7
:1025600060F32B8F3C8FDB01CA018F779070A070D6
:10257000B07080349105A105B10561F447FD0AC032
:10258000E114F1040105110529F0405C5F4F6F4F24
:102590007F4F40781A8EFE1711F081E08A8F4D8FA1
:1025A0005E8F6F8F78A383E0898FCE0149960E945A
:1025B0003515A096E2E10C94F716A8E1B0E0E3EE41
:1025C000F2E10C94E31669837A838B839C832D83D9
:1025D0003E834F835887B9E0EB2EF12CEC0EFD1EA5
:1025E000CE010196B7010E940A168E010F5E1F4FA1
:1025F000CE010596B8010E940A162985223008F4FA
:102600007EC03989323010F4B8017CC08A859A893D
:1026100089278A87243011F0223031F4231709F0FA
:102620006EC064E870E06EC0343039F41D861E86DA
:102630001F86188A1C861B8604C0323021F484E071
:102640008987B7015FC02B853C858B899C89281BB6
:10265000390B3C872B87ED84FE840F851889AD8864
:10266000BE88CF88D88CEA14FB040C051D0540F405
:10267000EE0CFF1C001F111F215030403C872B87A0
:1026800020E030E040E050E080E090E0A0E0B0E406
:1026900060E070E0EA14FB040C051D0540F0282BF7
:1026A000392B4A2B5B2BEA18FB080C091D09B69540
:1026B000A79597958795EE0CFF1C001F111F6F5F64
:1026C0007F4F6F31710531F7DA01C9018F77907053
:1026D000A070B07080349105A105B10561F427FDAB
:1026E0000AC0E114F1040105110529F0205C3F4FF7
:1026F0004F4F5F4F20782D873E874F87588BBE0105
:10270000675F7F4FCB010E9435156896EAE00C9415
:10271000FF16A8E1B0E0EFE8F3E10C94E716698357
:102720007A838B839C832D833E834F83588789E0F4
:10273000E82EF12CEC0EFD1ECE010196B7010E9491
:102740000A168E010F5E1F4FCE010596B8010E943A
:102750000A168985823040F08989823028F0C701C5
:10276000B8010E94821601C08FEF6896E6E00C94D3
:102770000317A8E1B0E0EFEBF3E10C94E7166983EF
:102780007A838B839C832D833E834F83588789E094
:10279000E82EF12CEC0EFD1ECE010196B7010E9431
:1027A0000A168E010F5E1F4FCE010596B8010E94DA
:1027B0000A168985823040F08989823028F0C70165
:1027C000B8010E94821601C08FEF6896E6E00C9473
:1027D0000317A8E1B0E0EFEEF3E10C94E71669838C
:1027E0007A838B839C832D833E834F83588789E034
:1027F000E82EF12CEC0EFD1ECE010196B7010E94D1
:102800000A168E010F5E1F4FCE010596B8010E9479
:102810000A168985823040F08989823028F0C70104
:10282000B8010E94821601C081E06896E6E00C942F
:102830000317ACE0B0E0EFE1F4E10C94EB16698330
:102840007A838B839C83CE010196BE016B5F7F4FA1
:102850000E940A168D81823061F1823050F18430FD
:1028600021F48E81882351F12EC02F81388537FDC8
:1028700020C06E812F3131051CF06623F9F023C092
:102880008EE190E0821B930B29853A854B855C8510
:1028900004C056954795379527958A95D2F76623B4
:1028A000B1F050954095309521953F4F4F4F5F4F78
:1028B0000EC020E030E040E050E009C02FEF3FEFD5
:1028C0004FEF5FE704C020E030E040E050E8B9019E
:1028D000CA012C96E2E00C940717A8E0B0E0E3E709
:1028E000F4E10C94E3167B018C01611571058105FF
:1028F000910519F482E0898360C083E089838EE1C9
:10290000C82ED12CDC82CB82ED82FE820F83188709
:10291000C801B7010E94E614FC013197F7FF3BC0E4
:10292000222733272E1B3F0B57016801022E04C0BC
:10293000D694C794B794A7940A94D2F740E050E095
:1029400060E070E081E090E0A0E0B0E004C0880FBB
:10295000991FAA1FBB1F2A95D2F70197A109B10998
:102960008E219F21A023B1230097A105B10521F05D
:1029700041E050E060E070E04A295B296C297D2944
:102980004D835E836F8378878EE190E08E1B9F0B73
:102990009C838B8312C0309781F00E2E04C0EE0C06
:1029A000FF1C001F111F0A94D2F7ED82FE820F83D5
:1029B0001887CE1ADF0ADC82CB821A82CE010196FA
:1029C0000E9435152896EAE00C94FF16EF92FF92CC
:1029D0000F931F937B018C0180E0E81680E0F806DE
:1029E00081E0080780E0180788F48FEFE816F1040B
:1029F0000105110531F028F088E090E0A0E0B0E09A
:102A000017C080E090E0A0E0B0E012C080E0E816DF
:102A100080E0F80680E0080781E0180728F088E1E8
:102A200090E0A0E0B0E004C080E190E0A0E0B0E081
:102A300020E230E040E050E0281B390B4A0B5B0BF2
:102A400004C016950795F794E7948A95D2F7F70195
:102A5000E457FF4F8081281B310941095109C90101
:102A60001F910F91FF90EF900895DF92EF92FF92E8
:102A70000F931F93FC01E480F58006811781D180BC
:102A80008081823048F480E090E0A0E1B0E0E82A64
:102A9000F92A0A2B1B2BA5C0843009F49FC0823071
:102AA00021F4EE24FF24870105C0E114F10401059F
:102AB000110519F4E0E0F0E096C0628173819FEFA8
:102AC000623879070CF05BC022E83FEF261B370B1A
:102AD0002A3131052CF020E030E040E050E02AC0FF
:102AE000B801A701022E04C07695679557954795C2
:102AF0000A94D2F781E090E0A0E0B0E004C0880F33
:102B0000991FAA1FBB1F2A95D2F70197A109B109E6
:102B10008E219F21A023B1230097A105B10521F0AB
:102B200081E090E0A0E0B0E09A01AB01282B392BC6
:102B30004A2B5B2BDA01C9018F779070A070B070BF
:102B400080349105A105B10539F427FF09C0205C47
:102B50003F4F4F4F5F4F04C0215C3F4F4F4F5F4F80
:102B6000E0E0F0E02030A0E03A07A0E04A07A0E46F
:102B70005A0710F0E1E0F0E079018A0127C06038DF
:102B8000710564F5FB01E158FF4FD801C7018F774C
:102B90009070A070B07080349105A105B10539F432
:102BA000E7FE0DC080E490E0A0E0B0E004C08FE359
:102BB00090E0A0E0B0E0E80EF91E0A1F1B1F17FF0F
:102BC00005C016950795F794E794319687E016951A
:102BD0000795F794E7948A95D1F705C0EE24FF2472
:102BE0008701EFEFF0E06E2F679566276795902FCE
:102BF0009F77D794DD24D7948E2F8695492F462B27
:102C0000582F5D29B701CA011F910F91FF90EF90D6
:102C1000DF900895FC01DB01408151812281622F08
:102C20006F7770E0221F2227221F9381892F880F40
:102C3000822B282F30E0991F9927991F11969C937A
:102C4000119721153105A9F541155105610571054A
:102C500011F482E037C082E89FEF13969C938E9325
:102C600012979A01AB0167E0220F331F441F551FD3
:102C70006A95D1F783E08C930DC0220F331F441F58
:102C8000551F12968D919C911397019713969C93C3
:102C90008E931297203080E0380780E0480780E468
:102CA000580758F314962D933D934D935C931797C3
:102CB00008952F3F310579F44115510561057105DE
:102CC00019F484E08C93089564FF03C081E08C9331
:102CD00012C01C9210C02F57304013963C932E9375
:102CE000129783E08C9387E0440F551F661F771F70
:102CF0008A95D1F7706414964D935D936D937C9390
:102D0000179708951F93DC01FB019C91923008F402
:102D100047C08081823008F443C0943051F411964A
:102D20001C91843099F58181682F70E0611B7109D5
:102D30003FC0843021F0923031F48230B9F181818A
:102D4000882389F12DC011961C9111978230F1F0E2
:102D500081811817D9F412962D913C911397828195
:102D600093818217930794F028173907BCF01496C3
:102D70008D919D910D90BC91A02D2481358146812E
:102D80005781281739074A075B0718F4112341F0C8
:102D90000AC082179307A407B50740F4112319F05E
:102DA00061E070E005C06FEF7FEF02C060E070E0AF
:102DB000CB011F9108952F923F924F925F926F9295
:102DC0007F928F929F92AF92BF92CF92DF92EF92BB
:102DD000FF920F931F93CF93DF93CDB7DEB7CA1B3C
:102DE000DB0B0FB6F894DEBF0FBECDBF09942A8867
:102DF000398848885F846E847D848C849B84AA840F
:102E0000B984C884DF80EE80FD800C811B81AA819B
:102E1000B981CE0FD11D0FB6F894DEBF0FBECDBF66
:082E2000ED010895F894FFCFC5
:102E28003044726177696E6720436F6D706C6574AA
:102E38006564004E455820524F424F544943532031
:102E4800494E44000000000000000000000102029A
:102E5800030303030404040404040404050505052A
:102E68000505050505050505050505050606060606
:102E780006060606060606060606060606060606EA
:102E880006060606060606060606060607070707D6
:102E980007070707070707070707070707070707BA
:102EA80007070707070707070707070707070707AA
:102EB800070707070707070707070707070707079A
:102EC8000707070707070707070707070808080886
:102ED800080808080808080808080808080808086A
:102EE800080808080808080808080808080808085A
:102EF800080808080808080808080808080808084A
:102F08000808080808080808080808080808080839
:102F18000808080808080808080808080808080829
:102F28000808080808080808080808080808080819
:102F38000808080808080808080808080808080809
:0C2F48000808080808080808080808081D
:00000001FF
